:400000000080002011000000910300009103000008B5044B1A6803F53F5302331A6000F0BFF900BFFA46004010B5054C237833B9044B13B10448AFF300800123237010BD97
:400040005885FF1F0000000010190000084B10B51BB108480849AFF300800848036803B910BD074B002BFBD0BDE81040184700BF00000000101900005C85FF1F0881FF1F47
:4000800000000000000000002DE9F04385B062B600F068FC464800F027FC00F02BF900F091F8012000F0FAFB4FF00009C84602A800F030F9684600F035F9BDF80C00A0F6E6
:4000C000BA6001F01BF804460D46BDF80A00A0F6BA6001F013F834A3D3E9002301F074F806460F46204629462FA3D3E9002301F06BF801F07BFA05463046394601F076FA45
:400100000446BDF800300BBBBDF80230F3B9BDF80430DBB9BDF80630C3B9B9F1000F06D100F054F800F048F800F04CF804E0B9F1020F01D100F04AF809F10109642000F008
:400140008DFBE8B2E1B2002200F044F84F2C06DC4F2D04DCB8F1010F06D1FF250BE04F2D04DD4F2C05DD06E0FF2404E04FF0020801E04FF00108A54201D1FF242546642D33
:4001800000DDFF25642C00DDFF24012C00DC0124012D00DC0125E8B2E1B2002200F01AF885E700BFAFF30080925A28999CDA893FED010000AFF3008008B500F0E1FB012805
:4001C000FBD008BD08B500F03BFB08BD08B500F0CFFA08BD38B50D46144600F0DDFA284600F0E0FA204600F039FB38BDF8B500F001FD044600F084FC074600F007FC064693
:4002000000F0A2FD054614F0400F09D000F0F8FC044600F001FD201A80B2354B988003E000F0EEFC324B988017F0400F09D000F06DFC044600F076FC201A80B22C4BD880D7
:4002400003E000F063FC2A4BD88016F0400F09D000F0E2FB044600F0EBFB201A80B2244B188003E000F0D8FB214B188015F0400F09D000F06FFD044600F078FD201A80B2A3
:400280001B4B588003E000F065FD194B58800C2000F01CFD012000F00DFD0C2000F02EFD012000F01FFD0C2000F08AFB012000F07BFB0C2000F0B4FD012000F0A5FD0A20F9
:4002C00000F0E2FA022000F001FD022000F016FD022000F075FB022000F0A2FD00F08AFC00F00EFC00F092FB00F02EFDF8BD00BF7485FF1F08B5064800F0F6FA00F0CCFC94
:4003000000F050FC00F0D4FB00F070FD08BD00BFED0100000246024B03CB1060516070477485FF1F184B1B889BB2184A1288934202D90023038001E001230380124B5B8834
:400340009BB2124A5288934202D90023438001E0012343800C4B9B889BB20C4A9288934202D90023838001E001238380064BDB889BB2064AD288934202D90023C38070470F
:400380000123C380704700BF7485FF1F0C81FF1F08B501F053F903680C2B00D1FEE7FEE708B5104E104D16E029686B68AC68002204E051F8040B43F8040B0432A242F8D1F6
:4003C000E868002203E0002143F8041B04328242F9D11035013E002EE6D101F035F9FFF753FEFEE7010000008019000008B5124A124B1A60124A136843F400731360002314
:400400000AE0032B03D80F4A52F8231000E00E490E4A42F8231001332F2BF2D90C4B1A780C4B1A70094A0C4B1A6000F0F7F800220A4B1A6008BD00BF0004FA050CED00E080
:4004400014ED00E000000000910300000080FF1FBC7600400481FF1F08ED00E00081FF1FFEE700BFF0B40022174611E050F82760F3B226F0FF0608E001EB420511F8124023
:400480006D78A5550132013BDBB2002BF4D10137242FEBD9F0BC704708B50A46002101F071F908BD38B50122304B1A801823304A1370192502321580023213701D210232E4
:4004C00011800232137077210232118002321370EF21023211800232137040F2AF4102321180023213700222224B1A7008224FF040231A70032103F5007319701E4B1B78F1
:40050000DBB21E490B701E4B1A8041F25122023B1A8000240CE01B4B1B7803F0010343EA440404F003044FF4F07000F085FC013D0DB1032CEFD115B90320FFF791FF124B89
:400540004FF480721A8007221A7000220F490A704820023108701A700222033B1A700C4A137843F03F03137038BD00BF80400040824000400043004008010049A1460040F1
:4005800022420040254200400440004006400040A2430040F8B5184B1B78DBB2174E3478E4B2174F3D78EDB203F00701154A11701B090132137044F00303337045F0030363
:4005C0003B708022104B1A704023104A137002321370082302F21D2213702021033211702D3213700A2000F04FF93D7034704422074B1A70F8BD00BFCF010049F846004018
:40060000F94600406E5800402D510040095900407658004008B501F03FF808BD38B572B63A4A137843F00403137000240CE0384963001A1952000A4423445B00C85891887A
:40064000FFF72AFF0134E4B2072CF0D900240BE02F49A3001A1952000A44106B516B0622FFF7D8FF0134E4B2002CF1D04FF090402849FFF7F7FE284A137843F00203137090
:400680001032137843F002031370244C237843F040032370A2F58632513A137843F0100313701F481F490822FFF7B4FF1E481F490A22FFF7AFFF1E481E490822FFF7AAFF9A
:4006C0001D481E490822FFF7A5FF1D481D490A22FFF7A0FF1C481D490822FFF79BFF1C4A137843F0080313701A4D61232B70FFF7D9FE81232B700122174B1A70FFF74AFFC8
:40070000164821460E22FFF785FF38BDE8460040141900009400004803500140A0430040025100407C080048C051004084080048F2510040900800481251004098080048B5
:4007400020510040A008004832510040AC080048224300400048004004000840B0430040024A137843F080031370704777650040024A137803F07F031370704777650040E8
:40078000014B1870704700BF07650040014B1870704700BF47650040014B1870704700BF27650040014B1870704700BF37650040014B1870704700BF87650040014B18787F
:4007C000704700BF67650040014B1878704700BF5765004008B501E0FFF7F6FFFFF7EEFF10F0100FF8D108BD10B5134A137803F0C00343F009031370104C237843F00103BD
:400800002370FF20FFF7BCFFFF20FFF7BFFF2820FFF7C2FF2820FFF7C5FF0020FFF7C8FF00F012FB237843F01003237000F010FBFFF7D0FF10BD00BF77650040976500408F
:4008400008B5054B1B7823B9FFF7CEFF0122024B1A70FFF785FF08BD8485FF1F10B5044605E0084B186800F0E7FAA4F50044B4F5004FF6D8034B586800FB04F000F0DCFADB
:4008800010BD00BF1481FF1F08B5034B1B7A03FB00F000F0D1FA08BD1481FF1F044A137803F0DF03400100F0200018431070704720510040014B1B685864704708ED00E0DF
:4008C0004001C0B2014B1870704700BF01E400E00222014B1A60704700E100E00222014B1A60704780E100E010B50446FFF7F6FF2046FFF7DFFF0720FFF7E2FFFFF7E8FFE3
:4009000010BD00BF7222084B1A702022A3F580731A700622A1331A70472210331A700022B03B1A70704700BF8865004010B500F08BFA04460A4A137843F020031370A2F59A
:400940008072137843F0100313700132137843F01003137000F01AF8204600F079FA10BD9865004008B5054B1B7823B9FFF7CAFF0122024B1A70FFF7D9FF08BD8585FF1FE5
:40098000014B1878C009704711510040054A137843F0020313701032137843F002031370704700BFA2430040044A137803F0DF03400100F02000184310707047F05100406F
:4009C000044A137803F0F10300F00E0018431070704700BF7D500040084A137843F0020313701032137843F00203137002F65932137843F001031370704700BFA343004057
:400A0000014B1870704700BF0F4F0040014B1878704700BF0F4F0040014B188880B27047104F0040014B1880704700BF104F0040014B188880B27047144F0040014B188015
:400A4000704700BF124F004008B5164A137803F0010313700232137803F0FC031370124B1A7802F0CF021A701A7842F030021A701A7802F0F0021A701A7842F00F021A70EE
:400A80000A4A137843F00103137045F6BF50FFF7C9FF45F6BF50FFF7D1FF0820FFF7B0FF08BD00BF0C4F0040174F00400D4F004008B5054B1B7823B9FFF7C6FF0122024BB0
:400AC0001A70FFF789FF08BD8785FF1F084A137843F0080313701032137843F00803137002F67132137843F001031370704700BFA3430040014B1870704700BF274F004057
:400B0000014B1878704700BF274F0040014B188880B27047284F0040014B1880704700BF284F0040014B188880B270472C4F0040014B1880704700BF2A4F004008B5164A50
:400B4000137803F0010313700232137803F0FC031370124B1A7802F0CF021A701A7842F030021A701A7802F0F0021A701A7842F00F021A700A4A137843F00103137045F64D
:400B8000BF50FFF7C9FF45F6BF50FFF7D1FF0820FFF7B0FF08BD00BF244F00402F4F0040254F004008B5054B1B7823B9FFF7C6FF0122024B1A70FFF789FF08BD8885FF1F43
:400BC000084A137843F0040313701032137843F00403137002F66532137843F001031370704700BFA3430040014B1870704700BF1B4F0040014B1878704700BF1B4F004071
:400C0000014B188880B270471C4F0040014B1880704700BF1C4F0040014B188880B27047204F0040014B1880704700BF1E4F004008B5164A137803F00103137002321378C3
:400C400003F0FC031370124B1A7802F0CF021A701A7842F030021A701A7802F0F0021A701A7842F00F021A700A4A137843F00103137045F6BF50FFF7C9FF45F6BF50FFF703
:400C8000D1FF0820FFF7B0FF08BD00BF184F0040234F0040194F004008B5054B1B7823B9FFF7C6FF0122024B1A70FFF789FF08BD8985FF1F044A137803F0EF03000100F0C3
:400CC0001000184310707047C0510040044A137803F0F10300F00E0018431070704700BF64500040044A137803F0EF03000100F01000184310707047F0510040044A137853
:400D000003F0F10300F00E0018431070704700BF7C500040084A137843F0010313701032137843F00103137002F64D32137843F001031370704700BFA3430040014B187027
:400D4000704700BF034F0040014B1878704700BF034F0040014B188880B27047044F0040014B1880704700BF044F0040014B188880B27047084F0040014B1880704700BF6C
:400D8000064F004008B5164A137803F0010313700232137803F0FC031370124B1A7802F0CF021A701A7842F030021A701A7802F0F0021A701A7842F00F021A700A4A13784E
:400DC00043F00103137045F6BF50FFF7C9FF45F6BF50FFF7D1FF0820FFF7B0FF08BD00BF004F00400B4F0040014F004008B5054B1B7823B9FFF7C6FF0122024B1A70FFF7F0
:400E000089FF08BD8A85FF1F044A137803F0EF03000100F0100018431070704730510040044A137803F0F10300F00E0018431070704700BF1C5000400230800803D000BF1F
:400E400001380046FCD17047EFF3108072B6704780F31088704700BF81F0004102E000BF83F0004330B54FEA41044FEA430594EA050F08BF90EA020F1FBF54EA000C55EA65
:400E8000020C7FEA645C7FEA655C00F0E2804FEA5454D4EB5555B8BF6D420CDD2C4480EA020281EA030382EA000083EA010180EA020281EA0303362D88BF30BD11F0004F36
:400EC0004FEA01314FF4801C4CEA113102D0404261EB410113F0004F4FEA03334CEA133302D0524263EB430394EA050F00F0A780A4F10104D5F1200E0DDB02FA0EFC22FAD6
:400F000005F2801841F1000103FA0EF2801843FA05F359410EE0A5F120050EF1200E012A03FA0EFC28BF4CF0020C43FA05F3C01851EBE37101F0004507D54FF0000EDCF189
:400F4000000C7EEB00006EEB0101B1F5801F1BD3B1F5001F0CD349085FEA30004FEA3C0C04F101044FEA445212F5800F80F09A80BCF1004F08BF5FEA500C50F1000041EBC1
:400F8000045141EA050130BD5FEA4C0C404141EB010111F4801FA4F10104E9D191F0000F04BF01460020B1FA81F308BF2033A3F10B03B3F120020CDA0C3208DD02F1140CFF
:400FC000C2F10C0201FA0CF021FA02F10CE002F11402D8BFC2F1200C01FA02F120FA0CFCDCBF41EA0C019040E41AA2BF01EB0451294330BD6FEA04041F3C1CDA0C340EDC38
:4010000004F11404C4F1200220FA04F001FA02F340EA030021FA04F345EA030130BDC4F10C04C4F1200220FA02F001FA04F340EA0300294630BD21FA04F0294630BD94F05D
:40104000000F83F4801306BF81F480110134013D4EE77FEA645C18BF7FEA655C29D094EA050F08BF90EA020F05D054EA000C04BF1946104630BD91EA030F1EBF00210020AE
:4010800030BD5FEA545C05D14000494128BF41F0004130BD14F580043CBF01F5801130BD01F0004545F0FE4141F470014FF0000030BD7FEA645C1ABF194610467FEA655C0B
:4010C0001CBF0B46024650EA013406BF52EA033591EA030F41F4002130BD00BF90F0000F04BF0021704730B54FF4806404F132044FF000054FF0000150E700BF90F0000FDB
:4011000004BF0021704730B54FF4806404F1320410F0004548BF40424FF000013EE700BF42004FEAE2014FEA31014FEA02701FBF12F07F4393F07F4F81F06051704792F029
:40114000000F14BF93F07F4F704730B54FF4607401F0004521F0004120E700BF50EA010208BF704730B54FF000050AE050EA010208BF704730B511F0004502D5404261EBE2
:4011800041014FF4806404F132045FEA915C3FF4DCAE4FF003025FEADC0C18BF03325FEADC0C18BF033202EBDC02C2F1200300FA03FC20FA02F001FA03FE40EA0E0021FAF5
:4011C00002F11444C1E600BF70B54FF0FF0C4CF4E06C1CEA11541DBF1CEA135594EA0C0F95EA0C0F00F0DEF82C4481EA030621EA4C5123EA4C5350EA013518BF52EA0335A2
:4012000041F4801143F4801338D0A0FB02CE4FF00005E1FB02E506F00042E0FB03E54FF00006E1FB03569CF0000F18BF4EF0010EA4F1FF04B6F5007F64F5407404D25FEA82
:401240004E0E6D4146EB060642EAC62141EA55514FEAC52040EA5E504FEACE2EB4F1FD0C88BFBCF5E06F1ED8BEF1004F08BF5FEA500E50F1000041EB045170BD06F0004696
:4012800046EA010140EA020081EA0301B4EB5C04C2BFD4EB0C0541EA045170BD41F480114FF0000E013C00F3AB8014F1360FDEBF002001F0004170BDC4F10004203C35DA6C
:4012C0000C341BDC04F11404C4F1200500FA05F320FA04F001FA05F240EA020001F0004221F0004110EBD37021FA04F642EB06015EEA430E08BF20EAD37070BDC4F10C0407
:40130000C4F1200500FA04F320FA05F001FA04F240EA020001F0004110EBD37041F100015EEA430E08BF20EAD37070BDC4F1200500FA05F24EEA020E20FA04F301FA05F223
:4013400043EA020321FA04F001F0004121FA04F220EA020000EBD3705EEA430E08BF20EAD37070BD94F0000F0FD101F00046400041EB010111F4801F08BF013CF7D041EA23
:40138000060195F0000F18BF704703F00046520043EB030313F4801F08BF013DF7D043EA0603704794EA0C0F0CEA135518BF95EA0C0F0CD050EA410618BF52EA4306D1D123
:4013C00081EA030101F000414FF0000070BD50EA410606BF1046194652EA430619D094EA0C0F02D150EA013613D195EA0C0F05D152EA03361CBF104619460AD181EA0301F7
:4014000001F0004141F0FE4141F470014FF0000070BD41F0FE4141F4780170BD70B54FF0FF0C4CF4E06C1CEA11541DBF1CEA135594EA0C0F95EA0C0F00F0A7F8A4EB0504A3
:4014400081EA030E52EA03354FEA013100F088804FEA03334FF0805545EA131343EA12634FEA022245EA111545EA10654FEA00260EF000419D4208BF964244F1FD0404F5FE
:40148000407402D25B084FEA3202B61A65EB03055B084FEA32024FF480104FF4002CB6EB020E75EB030E22BFB61A754640EA0C005B084FEA3202B6EB020E75EB030E22BF03
:4014C000B61A754640EA5C005B084FEA3202B6EB020E75EB030E22BFB61A754640EA9C005B084FEA3202B6EB020E75EB030E22BFB61A754640EADC0055EA060E18D04FEADF
:40150000051545EA16754FEA06164FEAC30343EA52734FEAC2025FEA1C1CC0D111F4801F0BD141EA00014FF000004FF0004CB6E711F4801F04BF01430020B4F1FD0C88BFAF
:40154000BCF5E06F3FF6AFAEB5EB030C04BFB6EB020C5FEA500C50F1000041EB045170BD0EF0004E4EEA113114EB5C04C2BFD4EB0C0541EA045170BD41F480114FF0000EEE
:40158000013C90E645EA060E8DE60CEA135594EA0C0F08BF95EA0C0F3FF43BAF94EA0C0F0AD150EA01347FF434AF95EA0C0F7FF425AF104619462CE795EA0C0F06D152EABE
:4015C00003353FF4FDAE1046194622E750EA410618BF52EA43067FF4C5AE50EA41047FF40DAF52EA43057FF4EBAE12E74FEA410212F5001215D211D56FF47873B3EB62521B
:4016000012D94FEAC12343F0004343EA505311F0004F23FA02F018BF404270474FF00000704750EA013005D111F0004008BF6FF0004070474FF00000704700BF014B1868D7
:40164000704700BF5085FF1F70B50F4E0F4D761BB61018BF002405D0013455F8043B9847A642F9D10A4E0B4D00F076F9761BB61018BF002406D0013455F8043B9847A642EB
:40168000F9D170BD70BD00BF64190000641900007019000064190000844641EA000313F0030349D1403A23D30B6803604B6843608B688360CB68C3600B6903614B69436134
:4016C0008B698361CB69C3610B6A03624B6A43628B6A8362CB6AC3620B6B03634B6B43638B6B8363CB6BC36340304031403ADBD230320BD30B6803604B6843608B68836098
:40170000CB68C36010301031103AF3D20C3205D351F8043B40F8043B043AF9D2043208D0D2071CBF11F8013B00F8013B01D30B8803806046704700BF082A13D38B07B1D039
:4017400010F00303AED0C3F10403D21ADB071CBF11F8013B00F8013BA4D331F8023B20F8023B9FE7043AD9D3013A11F8013B00F8013BF9D20B7803704B7843708B78837085
:401780006046704770B4840746D0541E002A41D0CDB2034602E0621EE4B3144603F8015B9A07F8D1032C2ED9CDB245EA05250F2C45EA054519D9264603F11002103E0F2ECD
:4017C00042F8105C42F80C5C42F8085C42F8045C02F11002F2D8A4F1100222F00F0204F00F041032032C13440DD91E462246043A032A46F8045BFAD8221F22F003020432E7
:40180000134404F003042CB1C9B21C4403F8011BA342FBD170BC704714460346C2E700BF024B13B1024800F005B870470000000041180000014600200246034600F016B81A
:4018400038B5084B084DED1AAC1018BFED1805D0013C55F8043D9847002CF9D1BDE8384000F086B87C190000801900002DE9F047254C064625688846D5F8484192469946D4
:40188000C4B360681F2817DC411C76B104EB8003C3F888A0D4F88851012282401543022EC4F88851C3F808911ED0831C6160002044F82380BDE8F087144B03B34FF4C870E2
:4018C000AFF300800446D0B1D5F84831002784E888003846C5F848410121C4F88871C4F88C71002EE1D0D1E7D4F88C311A43C4F88C21DAE705F5A674C5F84841C1E74FF05E
:40190000FF30BDE8F08700BF541900000000000000000000C84900401900004F0040300040510040300000000140001000140140000800400140000A004C014000020050EE
:4019400001402000605200407408004806000000430000002881FF1FF8B500BFF8BC08BC9E467047211800004D000000ED030000F8B500BFF8BC08BC9E46704729000000A3
:40198000901900000881FF1F50040000380000000000000010271027102710270000E02EC05D00001800000000366E0100000000000000001484FF1F7C84FF1FE484FF1F2D
:4019C000000000000000000000000000000000000000000000000000000000000000000000000000501900000000000000000000000000000000000000000000000000007E
:401A000000000000000000000000000000000000000000000000000000000000000000000000000000000000000000000000000000000000000000000000000000000000A6
:401A400000000000000000000000000000000000000000000000000001000000000000000E33CDAB34126DE6ECDE05000B0000000000000000000000000000000000000039
:401A80000000000000000000000000000000000000000000000000000000000000000000000000000000000000000000000000000000000000000000000000000000000026
:401AC00000000000000000000000000000000000000000000000000000000000000000000000000000000000000000000000000000000000000000000000000000000000E6
:401B000000000000000000000000000000000000000000000000000000000000000000000000000000000000000000000000000000000000000000000000000000000000A5
:401B40000000000000000000000000000000000000000000000000000000000000000000000000000000000000000000000000000000000000000000000000000000000065
:401B80000000000000000000000000000000000000000000000000000000000000000000000000000000000000000000000000000000000000000000000000000000000025
:401BC00000000000000000000000000000000000000000000000000000000000000000000000000000000000000000000000000000000000000000000000000000000000E5
:401C000000000000000000000000000000000000000000000000000000000000000000000000000000000000000000000000000000000000000000000000000000000000A4
:401C40000000000000000000000000000000000000000000000000000000000000000000000000000000000000000000000000000000000000000000000000000000000064
:401C80000000000000000000000000000000000000000000000000000000000000000000000000000000000000000000000000000000000000000000000000000000000024
:401CC00000000000000000000000000000000000000000000000000000000000000000000000000000000000000000000000000000000000000000000000000000000000E4
:401D000000000000000000000000000000000000000000000000000000000000000000000000000000000000000000000000000000000000000000000000000000000000A3
:401D40000000000000000000000000000000000000000000000000000000000000000000000000000000000000000000000000000000000000000000000000000000000063
:401D80000000000000000000000000000000000000000000000000000000000000000000000000000000000000000000000000000000000000000000000000000000000023
:401DC0000000000000000000000000000000000000000000000000002881FF1F0000000000000000000000000000000000000000000000000000000000000000000000001C
:401E000000000000000000000000000000000000000000000000000000000000000000000000000000000000000000000000000000000000000000000000000000000000A2
:401E40000000000000000000000000000000000000000000000000000000000000000000000000000000000000000000000000000000000000000000000000000000000062
:401E80000000000000000000000000000000000000000000000000000000000000000000000000000000000000000000000000000000000000000000000000000000000022
:401EC00000000000000000000000000000000000000000000000000000000000000000000000000000000000000000000000000000000000000000000000000000000000E2
:020000040003F7
:0200000480007A
:40000000084F004003520040015B00400364004003650040010101400103014001050140010701404D08014041090140040A01400C0B0140680C0140360D0140010F01403F
:40004000131501405F1601403E1701405818014057190140591A0140541B014005400140034101400D42014009430140024401400345014006460140044701401748014014
:400080001E490140144C0140134D0140065001400251014001800A4E0D80164E1980221E25802E4E1830192079022F848838890F8C0F870F88728B0FE604E602E208E801F6
:4000C00004180A040C041623183F1C10201C222123012427261828082C3C2E022F013101321F36383A283F015418580459045B045C015D105F0182048503860487148A01E7
:400100008B088C038D138F0C90029403A120A513A604A704AB15AD0AAE04AF14B10FB204B320B403B710B820BB02BE14BF44C056C102C6BEC70CC81CC9FFCAFFCBFFCEF021
:40014000CF44D00CD401D804D904DA04DB04DC10DD11DF01E6C0EA40EB0200600101020803280510061208090A400B100C800D080E04138814101604174118041A201D0439
:400180001E041F50204022462502280129012A082B882C402F42386840084208450246804A0A50245384582059015A885E02640466808740902092429310944096209B80D7
:4001C0009E40A420A708AB80C0EFC2ECC4F5CA9FCE0ED004D20CD68FD830E602B880BE40D804DF011F408740902092429310944096209E40A420A708B510B720080D0A024A
:400200000B011302160D19031A081D011E0425013001310232023301340C36083AA03E013F014065420449FF4AFF4BFF4F01501854035604580459045A045B045C225D2291
:400240005F016040624064406540668068806A806C806E808303844089098A0C8BD08C118D108E068FAC900C92139411950C960E97719914A1DCA208A322A820AA03AB201F
:40028000AD10AF40B00FB11FB230B3E0B440B808BA02BB08BE10C065C204C5ECC720C823C9FFCAFFCBFFCD83CE03CF01D018D804D904DA04DC11DD02DF01E040E240E44042
:4002C000E540E680E880EA80EC80EE800050032005100A400B100D800E1410041240183819211A401DC01E141F1221092201231027A0280429012A402B082F10302031089F
:4003000035503602385039023E1042804302468049204A024B054C044E0252025FA5674087409620C047C2ECC40ACA4DCCB6CE2DD081D23CD6F0D8808210818088408D8005
:400340008F109C409D809F10A180A802B226B610B720E008E214E421E608E810EA4DEE8002020B01150216011A0123062B0131023202340135043701403041054501460289
:40038000480549FF4AFF4BFF4DA04F0450185280580459045A045B045C435D335F01604062C06440654066C068C06AC06CC06EC086088A048B028F04930195089604980218
:4003C0009A019C039F02A001A202A803AE08AF01B102B204B304B403B501B608B708BE44BF50C060C103C5D2C601C705C817C9FFCAFFCBFFCDA0CF04D018D280D407D80438
:40040000D904DA04DB04DC41DD44DF01E040E2C0E440E540E6C0E8C0EAC0ECC0EEC000300310064009400A040B100D080F08104A180819041A051D081F202080222023124F
:400440002580274829802C802F083080320637083B503F1040104508481049014B104F8850805308574059055A105B40734076408540870888408A018B028C0CC016C26711
:40048000C40BCAA8CC4BCE2CD042D214D60FE22AE402E624E844EC80EE040101050406020D030E021001111F13201402151C1723180219331B0C1D0221082401253F2801D8
:4004C0002B232D0C300232013310350F372C38023BA03F044064420145EC4602480749FF4AFF4BFF4F01501856025711580459045A045B045C115D155F0160406240644031
:400500006540668068806A806C806E80800186038D0491029D01B001B102B304B501B602BF15C002C604C9FFCA07CBFFCC40CD20CEF0CF05D008D804D904DA04DC04DD01B4
:40054000DF01E040E1A8E240E32000090504070108080A100B200C100E501520170418811D091F042102221023102408261027212C812F14328134103504361037413B4027
:400580003C403E0A4004468148104E084F05524056805F206E446F047480761C8102821084048510860488058A108D408F44900492029360984099049C149D109E569F01D4
:4005C000A280A490A508A601A702AB08AC20AF04B101B280B504B760C0ACC270C460CAF0CCF9CED8D094D220D620E011E208E480E610E840EC80EE04020F0310080509603A
:400600000A0A0B0E0C050D650E0A11201230134914101520162017431C031E0C202021802210230F28032A0C310F320F33E0363037103B0E3E405283580459045B045C55A5
:400640005D505F018084823086068C268EC8960698E099019CE0A206A406A806AC42AE31B0E0B206B401B618B701BE40BF40C063C102C204C401C7CEC830C9FFCAFFCBFF53
:40068000CC62CDA0CEF0CF41D00CD403D804D904DA04DB04DC01DD51DF01E640E702E910EA30EB10ED10EE10EF120010014003800440050407400A420B200D480E04100846
:4006C00013021418160217011A101B801C401D901F0820102201230226802A012B8030083201372038103942444845884C04550457025C805E105F0568086940724082487D
:40070000868089018A028B308D049008918092049305944098D899049B419D109E03A108A608A70AA901AA01AB08AF10B080B280B440C0BBC2EDC4FACA01CC23CE0DD0F00D
:40074000D220D6F0E008E280E421E640E830EA81EEB0338834208020CC70E6208708A788E6401B421C413E105B085F0867808748A780C6F0CE20D6C0D880E2106B089040E0
:4007800096109B08A342A780A801DA40E8801302C40803809B02C008038005029B02B780C00CEA02870299029B02A38024085A20644069046F0272028202862089048A1009
:4007C0009610ABC0B302B440C820D480D880DAC0DC20E210E620E820EE200902122016405B0266107220740282208440864089028F029A309C40A002AA10AF02B002B40434
:40080000B610C210C430D640D880DC80DE20E010E480E610EA900C101080132016401D1034027B107F408210848099029D10A910B380C201C40EC601CC01DE03EA011040AF
:400840007210831087408850921097809810A710AB20B102B240B402C408DC01E205E808EA01EE0100060C020E06103A1A1A1C32003F03C002800000430000000080800071
:40088000000004008300409093008300000000000033330002000000800B0B000000000004000126220000008000000000F0F00060000000000000000000000000000000C0
:4008C00000000000000000000000000000000000000000000000000000000000000000000000000000000000000000000000000000000000000000000000000000000000F8
:4009000000000000000000000000000000000000000000000000000000000000000000000000000000000000000000000000000000000000000000000000000000000000B7
:400940000000000000000000000000000000000000000000000000000000000000000000000000000000000000000000000000000000000000000000000000000000000077
:400980000000000000000000000000000000000000000000000000000000000000000000000000000000000000000000000000000000000000000000000000000000000037
:0200000490006A
:0400000000004005B7
:0200000490105A
:04000000BC90ACAF55
:0200000490303A
:020000007F5A25
:0200000490402A
:4000000000000000000000000000000000000000000000000000000000000000000000000000000000000000000000000000000000000000000000000000000000000000C0
:400040000000000000000000000000000000000000000000000000000000000000000000000000000000000000000000000000000000000000000000000000000000000080
:400080000000000000000000000000000000000000000000000000000000000000000000000000000000000000000000000000000000000000000000000000000000000040
:4000C0000000000000000000000000000000000000000000000000000000000000000000000000000000000000000000000000000000000000000000000000000000000000
:0200000490501A
:0C00000000012E16106900012E228FC393
:00000001FF